{
  "_format": "hh-sol-artifact-1",
  "contractName": "Wallet",
  "sourceName": "contracts/Wallet.sol",
  "abi": [
    {
      "inputs": [],
      "stateMutability": "nonpayable",
      "type": "constructor"
    },
    {
      "inputs": [],
      "name": "deposit",
      "outputs": [],
      "stateMutability": "payable",
      "type": "function"
    },
    {
      "inputs": [
        {
          "internalType": "address payable",
          "name": "receiver",
          "type": "address"
        }
      ],
      "name": "faucet",
      "outputs": [],
      "stateMutability": "nonpayable",
      "type": "function"
    },
    {
      "inputs": [],
      "name": "getContractBalance",
      "outputs": [
        {
          "internalType": "uint256",
          "name": "",
          "type": "uint256"
        }
      ],
      "stateMutability": "view",
      "type": "function"
    },
    {
      "inputs": [],
      "name": "owner",
      "outputs": [
        {
          "internalType": "address",
          "name": "",
          "type": "address"
        }
      ],
      "stateMutability": "view",
      "type": "function"
    },
    {
      "inputs": [
        {
          "internalType": "uint256",
          "name": "amount",
          "type": "uint256"
        }
      ],
      "name": "withdraw",
      "outputs": [],
      "stateMutability": "nonpayable",
      "type": "function"
    }
  ],
  "bytecode": "0x608060405234801561001057600080fd5b50336000806101000a81548173ffffffffffffffffffffffffffffffffffffffff021916908373ffffffffffffffffffffffffffffffffffffffff1602179055506107fd806100606000396000f3fe60806040526004361061004a5760003560e01c80632e1a7d4d1461004f5780636f9fb98a146100785780638da5cb5b146100a3578063b86d1d63146100ce578063d0e30db0146100f7575b600080fd5b34801561005b57600080fd5b506100766004803603810190610071919061047c565b610101565b005b34801561008457600080fd5b5061008d6102a3565b60405161009a91906104b8565b60405180910390f35b3480156100af57600080fd5b506100b86102ab565b6040516100c59190610514565b60405180910390f35b3480156100da57600080fd5b506100f560048036038101906100f0919061056d565b6102cf565b005b6100ff61043f565b005b60008054906101000a900473ffffffffffffffffffffffffffffffffffffffff1673ffffffffffffffffffffffffffffffffffffffff163373ffffffffffffffffffffffffffffffffffffffff161461018f576040517f08c379a00000000000000000000000000000000000000000000000000000000081526004016101869061061d565b60405180910390fd5b478111156101d2576040517f08c379a00000000000000000000000000000000000000000000000000000000081526004016101c990610689565b60405180910390fd5b60008060009054906101000a900473ffffffffffffffffffffffffffffffffffffffff1673ffffffffffffffffffffffffffffffffffffffff1682604051610219906106da565b60006040518083038185875af1925050503d8060008114610256576040519150601f19603f3d011682016040523d82523d6000602084013e61025b565b606091505b505090508061029f576040517f08c379a00000000000000000000000000000000000000000000000000000000081526004016102969061073b565b60405180910390fd5b5050565b600047905090565b60008054906101000a900473ffffffffffffffffffffffffffffffffffffffff1681565b600073ffffffffffffffffffffffffffffffffffffffff168173ffffffffffffffffffffffffffffffffffffffff160361033e576040517f08c379a0000000000000000000000000000000000000000000000000000000008152600401610335906107a7565b60405180910390fd5b662386f26fc10000471015610388576040517f08c379a000000000000000000000000000000000000000000000000000000000815260040161037f90610689565b60405180910390fd5b60008173ffffffffffffffffffffffffffffffffffffffff16662386f26fc100006040516103b5906106da565b60006040518083038185875af1925050503d80600081146103f2576040519150601f19603f3d011682016040523d82523d6000602084013e6103f7565b606091505b505090508061043b576040517f08c379a00000000000000000000000000000000000000000000000000000000081526004016104329061073b565b60405180910390fd5b5050565b565b600080fd5b6000819050919050565b61045981610446565b811461046457600080fd5b50565b60008135905061047681610450565b92915050565b60006020828403121561049257610491610441565b5b60006104a084828501610467565b91505092915050565b6104b281610446565b82525050565b60006020820190506104cd60008301846104a9565b92915050565b600073ffffffffffffffffffffffffffffffffffffffff82169050919050565b60006104fe826104d3565b9050919050565b61050e816104f3565b82525050565b60006020820190506105296000830184610505565b92915050565b600061053a826104d3565b9050919050565b61054a8161052f565b811461055557600080fd5b50565b60008135905061056781610541565b92915050565b60006020828403121561058357610582610441565b5b600061059184828501610558565b91505092915050565b600082825260208201905092915050565b7f4f6e6c79206f776e65722063616e2063616c6c20746869732066756e6374696f60008201527f6e00000000000000000000000000000000000000000000000000000000000000602082015250565b600061060760218361059a565b9150610612826105ab565b604082019050919050565b60006020820190508181036000830152610636816105fa565b9050919050565b7f496e73756666696369656e7420636f6e74726163742062616c616e6365000000600082015250565b6000610673601d8361059a565b915061067e8261063d565b602082019050919050565b600060208201905081810360008301526106a281610666565b9050919050565b600081905092915050565b50565b60006106c46000836106a9565b91506106cf826106b4565b600082019050919050565b60006106e5826106b7565b9150819050919050565b7f4661696c656420746f2073656e64204574686572000000000000000000000000600082015250565b600061072560148361059a565b9150610730826106ef565b602082019050919050565b6000602082019050818103600083015261075481610718565b9050919050565b7f496e76616c696420726563656976657220616464726573730000000000000000600082015250565b600061079160188361059a565b915061079c8261075b565b602082019050919050565b600060208201905081810360008301526107c081610784565b905091905056fea26469706673582212208283bfe14c2d89a89f82776abbe0ab0599e74615138bcafd6797f5b75f21355f64736f6c63430008180033",
  "linkReferences": {},
  "deployedLinkReferences": {}
}